:1000000015EF00F0EA6A080EE96EEF500DE0020EFF
:10001000016E006A002EFED7012EFBD7970E006EF0
:10002000002EFED7EF2EF3D7000CF86AD09EEA6AB6
:10003000E96A700ED36ED350046A056A066AC1502D
:10004000C00B0F09C16E070EB46E720ED36E800E18
:100050009B6ED350000E936EFF0E926E936A8A6A67
:100060009280046A80B0042A042C1ED0010E066E11
:10007000062C1AD093908A80040E076EAF0E086E7D
:10008000C1DF072EFBD793908A90040E076EAF0E48
:10009000086EB8DF072EFBD79282056A80B2052A68
:0C00A000052C01D0066AE4D7DBD7030072
:020000040030CA
:0E0000003FC8380E0005A1000FC00FE00F40F2
:00000001FF
;PIC18F4550
;CRC=AA46  CREATED="14-feb.-18 13:17"
