:1000000015EF00F0EA6A060EE96EEF500DE0020E01
:10001000016E006A002EFED7012EFBD7970E006EF0
:10002000002EFED7EF2EF3D7000CF86AD09EEA6AB6
:10003000E96A700ED36ED350C150C00B0F09C16E68
:10004000070EB46EC150C00B0F09C16EC090C092B4
:10005000C094C09EC2809698C69A949E93809392B4
:10006000010EC66E000EC76ED190800ED56ECD6AA1
:10007000000ECA6E000ECB6E070EB46E9250926EDA
:10008000060E006E002EFED70000B450A19CB56A8B
:10009000F288C00EF212F18C720ED36E800E9B6E3F
:1000A000D350010E936E93928A82040E056EFA0E5F
:1000B000066EA8DF052EFBD793928A92040E056E7A
:0E00C000FA0E066E9FDF052EFBD7EDD703006C
:020000040030CA
:0E0000003FC8380E0005A1000FC00FE00F40F2
:00000001FF
;PIC18F4550
;CRC=962F  CREATED="11-mar.-18 18:12"
