:1000000097EF04F0F76A140FF66E000EF72209005E
:10001000F5501200280C010644697374616E63691F
:1000200061730000566F6C74616A65203D20252E57
:1000300032662056000044203D20252E3166206384
:100040006D00EA6A1F0EE96EEF500DE0020E016EC0
:10005000006A002EFED7012EFBD7970E006E002EF1
:10006000FED7EF2EF3D7000C2638F00B006E0F0EE4
:100070008C1400108C6E00008C8000D000D08C900E
:10008000000C8350006E00380F0B016E000C0F0E39
:100090009514F009956E8C8400008C800000F1DFCF
:1000A00001C026F08C9000008C8000D0EADF01C0F7
:1000B00025F08C900F0E9514956E2638006EF00E7C
:1000C000001600502510016E68EF00F08C92DFD70B
:1000D00001C025F001BEFBD78C9223B08C820000BA
:1000E0008C9400008C902438256E0F0E251625C0A8
:1000F00026F0BADF24500F0B256E266EB5DF000CFC
:100100000F0E9514956E9590959295948C928C9473
:100110008C900F0E1F6E95DF010E116E11500308AB
:1001200008E3030E266EA0DF050E1F6E8ADF112A7C
:10013000F5D7020E266E98DF116A115003080EE300
:10014000036A1150F2CF12F0F29E5CDF12BEF28E03
:10015000126E236A246EBADF112AEFD7A6EF04F0DD
:10016000202C01D003D0400E216E01D0216A010E57
:100170001F5C212621508009226E236A246EA6DF8F
:10018000000C1E500C0A05E0060A0BE0020A0FE004
:1001900013D0236A010E246E99DF020E1F6E51DF09
:1001A00011D0010E1F6E020E206EDADF0BD0236A13
:1001B000100E246E8BDF06D0010E236E1EC024F0BD
:1001C00085DF00D0000C0900F5520CE0F6CF11F0ED
:1001D000F7CF12F0F5CF1EF0D4DF11C0F6FF12C03A
:1001E000F7FFF1D7EDEF04F08E0E006E12C001F0B4
:1001F00011C002F0036A015209E102C001F0026A73
:10020000080E005E015202E1006A08D0D89001BEDB
:1002100004D0023601360006F9D7019E11EF05F031
:100220001150D8B4A5D01D6E1550D8B4A1D01D5E04
:1002300005E37F0E1D26D8B09BD006D0810E1D5E33
:10024000D8A096D0D8B494D01DC000F0016A026A3C
:10025000036A1C6A12C01BF01B8E13C01AF014C074
:1002600019F0190E1D6E1850195E0DE2010E1A5E7E
:100270000AE21B5E08E21C5E06E21C2A1B2A1A2AFE
:100280001850192628D017501A5E12E2010E1B5E74
:100290000FE21C5E0DE21C2A1B2A17501A2618506A
:1002A000192619E31A2A17E11B2A15E11C2A13D073
:1002B000165080091B5E0EE2010E1C5E0BE21C2A2A
:1002C000165080091B2617501A26E9E31B2AE7E17E
:1002D0001C2AE5D703801D2E01D00BD0D8901936EB
:1002E0001A361B361C36D8900336023601361E36B7
:1002F000BAD71EA006D0D8900132023203321E3285
:1003000002D0000635E01EBE1ED0D89019361A362F
:100310001B361C361850195E07E2010E1A5E04E205
:100320001B5E02E21C5E1AE317501A5E05E2010E24
:100330001B5E02E21C5E12E3165080091B5E03E2A4
:10034000010E1C5E0BE3032A09E1022A07E1012AE0
:1003500005E1002A0DE001320232033212C01DF025
:1003600016501D1A1DAE02D0018E06D0019E04D07B
:10037000006A016A026A036A29EF05F01E50D8B4C8
:1003800071D0006E2250D8B46DD0002604E3810EE7
:10039000002668E204D07F0E005E64E363E01FC0C5
:1003A00026F02350261A1F8E238E21502502F4CFCB
:1003B00028F020502402F4CF03F0F3CF27F02502D9
:1003C000F3502826F4502722000E03222150240245
:1003D000F3502826F4502722000E026A032202223C
:1003E0001F502502F3502726F4500322000E02224C
:1003F0001F502402F3500326F4500222000E016A1B
:10040000012221502302F3502726F4500322000E2C
:100410000222012220502302F3500326F45002222C
:10042000000E01221F502302F3500226F450012235
:10043000002A01BE05D027360336023601360006F3
:10044000000E27AE0AD0032A02220122015005E144
:10045000025003E1035001E1002A26BE018E26AEC0
:10046000019E04D0006A016A026A036A000C800ED1
:10047000D8B21A1A1F6A206A16C01EF01A501E1A25
:100480001550D8B4DCD01D6E006E1950D8B4E0D031
:100490001D5ED8B481D03DE31AC023F0238E1BC06B
:1004A00022F01CC021F0206AD8902332223221325F
:1004B00020321D2EF8D71EAE03D01F80DDD01F9036
:1004C0001D901F88EA6A180EE96EE9D01F981EBEBB
:1004D0000AD01DA013D02332223221322032002A2A
:1004E000D8B4C5D00BD023BE0CD0D890203621363E
:1004F000223623360006D8B4BAD0F5D71F8C6BD07D
:100500001F9C16C01EF016AE02D0238EA9D0239ECB
:10051000A7D019C01DF019C000F015501D5E16C0FF
:1005200023F0238E17C022F018C021F0206AD89043
:1005300023322232213220321D2EF8D71EAE03D0B4
:100540001F829AD01F921D901F8AEA6A1C0EE96EC4
:10055000A6D01F9A1EBE0AD01DA013D0233222326D
:1005600021322032002AD8B482D00BD023BE0CD046
:10057000D89020362136223623360006D8B477D0DC
:10058000F5D71F8E28D01F9E1AC01EF01AAE02D0BB
:10059000238E66D0239E64D01AC023F0238E1BC006
:1005A00022F01CC021F01EAE04D0239E1F8464D014
:1005B0001F94206A1D90EA6A180EE96E70D01EBE64
:1005C0001CD016C01EF01DA006D0233222322132CC
:1005D0002032002A4CE020AE0BD0212A09E1222A49
:1005E00007E1232A05E1233222322132002A3FE0AB
:1005F0001FBC86D71FBEC7D71CD0800E231A23AEC0
:1006000004D03AD01AC01EF00AD016C01EF02352F1
:1006100006E1225204E1215202E1006A21D023BE08
:1006200008D0D8902036213622362336002EF7D730
:100630001ED01EAE02D0238E13D0239E11D019C01F
:1006400000F01AC023F01BC022F01CC021F008D01B
:1006500015C000F016C023F017C022F018C021F01A
:1006600023C001F022C002F021C003F034D0006AA0
:10067000016A026A036A2FD0206A211E221E231EED
:10068000201E202A05E1212A03E1222A01E1232A52
:100690001FB015D71FB256D71FB48AD7B3D7EF50A4
:1006A000212605E3222A03E1232AD8B41D80ED5236
:1006B000EF50222603E3232AD8B41D80ED52EF50D9
:1006C000EFBE01D0800A2326D8B01D801FB8FED609
:1006D0001FBA3FD774D7000C0900F6CF12F0F7CF3E
:1006E00013F0F5CF1EF04DDD12C0F6FF13C0F7FF7B
:1006F000112EF2D7000C1E50B6081E6E036A1FC0E2
:1007000022F01F8ED8901F32203221320332023263
:10071000013200321E2EF6D722AE0BD0001E011E73
:10072000021E031E002AD8B4012AD8B4022AD8B463
:10073000032AFFEF03F0006A016A026A036A266A6D
:10074000276A286A296A25502410231022102CE0D9
:10075000200E2A6ED8901E361F36203621362636B9
:100760002736283629362550295C08E12450285C94
:1007700005E12350275C02E12250265C0FE3225062
:10078000265E2350D8A0233C275E2450D8A0243CCA
:10079000285E2550D8A0253C295ED8800036013639
:1007A000023603362A2ED6D7EA6A260EE96E000CE8
:1007B000E950166E1550186E19E014C021F013C0E0
:1007C00020F012C01FF011C01EF0256A246A200E0E
:1007D000236E820E226ED2DD03C014F002C013F02D
:1007E00001C012F000C011F0182EE7D714C021F09C
:1007F00013C020F012C01FF011C01EF07CD703C040
:1008000014F002C013F001C012F000C011F014AED9
:100810000DD01606168A111E121E131E141E112A42
:10082000D8B4122AD8B4132AD8B4142A3B0E1D6E99
:100830009A0E1C6ECA0E1B6E1A6A0A0E186E15509E
:10084000D8B4162A14C021F013C020F012C01FF033
:1008500011C01EF01DC025F01CC024F01BC023F0E9
:100860001AC022F068DF0150EFCF11F0ECCF12F088
:10087000ECCF13F0ECCF14F000520FE11528185C08
:100880000CE016500CE00F0B185C01E037E216BECE
:1008900035D016BC04D0200E2DD0200E161616AA68
:1008A0000CD0169A1550D8A416060050166E2D0EB0
:1008B0001E6E67DC1650006E166A1550185C0AE151
:1008C0000050166E2E0E1E6E5CDC1650006E200E52
:1008D0001616000E300E16AA0DD0169A1550D8A472
:1008E00016060050166E2D0E1E6E4BDC1650006E56
:1008F000166A300E002600C01EF043DC1DC021F039
:100900001CC020F01BC01FF01AC01EF0256A246A0C
:10091000236A0A0E226E0FDF03C01DF002C01CF016
:1009200001C01BF000C01AF0182E8CD7000CF86A1A
:10093000D09EEA6AE96A700ED36ED350C150C00BE4
:100940000F09C16E070EB46E80EF00F0C150C00BEE
:100950000E09C16EC080C082C084C09EC280000EDD
:10096000016EC250C30B0110C26EC150C00B0E0904
:10097000C16EC090C092C094C09EC2809698C69A24
:10098000949E93809392010EC66E000EC76ED19016
:10099000800ED56ECD6A000ECA6E000ECB6EB16AA7
:1009A000070EB46E9250926E060E006E002EFED7A9
:1009B0000000B450A19CB56A720ED36E800E9B6E7F
:1009C000D350050E1F6E010E206EB0EC00F0180E15
:1009D000F66E000EF76EE3EF00F0040E116EAF0E30
:1009E0001F6E21EC00F0112EFAD7050E1F6E010EBE
:1009F000206EB0EC00F00C0E1E6EC1EC00F0050E87
:100A00001F6E020E206EB0EC00F00C0E1E6EC1ECDC
:100A100000F0C282C2B2FED7C450126A116EF4EF67
:100A200000F003C008F002C007F001C006F000C0EB
:100A300005F008C014F007C013F006C012F005C09E
:100A400011F0186A176A7F0E166E860E156E10EF7B
:100A500001F000C011F001C012F002C013F003C099
:100A600014F003C021F002C020F001C01FF000C04C
:100A70001EF0256A246A200E236E810E226E7EDC13
:100A800003C00CF002C00BF001C00AF000C009F076
:100A9000E60E216E3F0E206E240E1F6E7D0E1E6E22
:100AA0000CC025F00BC024F00AC023F009C022F0CE
:100AB00065DC00C011F001C012F002C013F003C0E9
:100AC00014F003C021F002C020F001C01FF000C0EC
:100AD0001EF00CC025F00BC024F00AC023F009C0A2
:100AE00022F04CDC00C011F001C012F002C013F083
:100AF00003C014F003C021F002C020F001C01FF0B9
:100B000000C01EF00CC025F00BC024F00AC023F07A
:100B100009C022F033DC00C011F001C012F002C0A5
:100B200013F003C014F06E0E216EA30E206E710E32
:100B30001F6E7F0E1E6E0CC025F00BC024F00AC085
:100B400023F009C022F01ADC00C015F001C016F035
:100B500002C017F003C018F003C021F002C020F05B
:100B600001C01FF000C01EF00CC025F00BC024F027
:100B70000AC023F009C022F001DCD88214C018F0AA
:100B800013C017F012C016F011C015F003C01CF00E
:100B900002C01BF001C01AF000C019F068DC00C0F0
:100BA00011F001C012F002C013F003C014F05B0E8C
:100BB000216E420E206E620E1F6E800E1E6E0CC0E5
:100BC00025F00BC024F00AC023F009C022F0BEECCF
:100BD00001F0D89214C018F013C017F012C016F02C
:100BE00011C015F003C01CF002C01BF001C01AF0C8
:100BF00000C019F03CDC00C011F001C012F002C0CE
:100C000013F003C014F0D89203C018F002C017F01C
:100C100001C016F000C015F0300E1C6EBB0E1B6E2E
:100C2000270E1A6E7C0E196E22DC03C010F002C073
:100C30000FF001C00EF000C00DF0050E1F6E010E8A
:100C4000206EB0EC00F0240EF66E000EF76E0A0E69
:100C5000116E42DD890EE96E0CC014F00BC013F06A
:100C60000AC012F009C011F0020E156EA1DD200EAF
:100C70001E6EC1EC00F0560E1E6EC1EC00F0050EAB
:100C80001F6E020E206EB0EC00F0360EF66E000EF7
:100C9000F76E040E116E20DD890EE96E10C014F09F
:100CA0000FC013F00EC012F00DC011F0010E156E42
:100CB0007FDD200E1E6EC1EC00F0630E1E6EC1ECD7
:100CC00000F06D0E1E6EC1EC00F093908A80040E51
:100CD000116EAF0E1F6E21EC00F0112EFAD793901B
:100CE0008A90040E116EAF0E1F6E21EC00F0112ED3
:0E0CF000FAD7320E1F6E21EC00F077D603000B
:020000040030CA
:0E0000003FC8380E0005A1000FC00FE00F40F2
:00000001FF
;PIC18F4550
;CRC=6E17  CREATED="19-abr.-18 14:58"
