:1000000047EF01F0F76A140FF66E000EF7220900B1
:10001000F5501200280C0106EA6A0D0EE96EEF5049
:100020000DE0020E016E006A002EFED7012EFBD7F6
:10003000970E006E002EFED7EF2EF3D7000C14386B
:10004000F00B006E0F0E8C1400108C6E00008C8074
:1000500000D000D08C90000C8350006E00380F0B45
:10006000016E000C0F0E9514F009956E8C84000043
:100070008C800000F1DF01C014F08C9000008C80B7
:1000800000D0EADF01C013F08C900F0E9514956E2E
:100090001438006EF00E001600501310016E53EF6E
:1000A00000F08C92DFD701C013F001BEFBD78C9219
:1000B00011B08C8200008C9400008C901238136E6A
:1000C0000F0E131613C014F0BADF12500F0B136E7D
:1000D000146EB5DF000C0F0E9514956E95909592E9
:1000E00095948C928C948C900F0E0D6E95DF010E72
:1000F000066E0650030808E3030E146EA0DF050E1B
:100100000D6E8ADF062AF5D7020E146E98DF066A96
:10011000065003080EE3036A0650F2CF07F0F29E82
:1001200071DF07BEF28E076E116A126EBADF062A01
:10013000EFD758EF01F00E2C01D003D0400E0F6E18
:1001400001D00F6A010E0D5C0F260F508009106E52
:10015000116A126EA6DF000C0C500C0A05E0060AAC
:100160000BE0020A0FE013D0116A010E126E99DF44
:10017000020E0D6E51DF11D0010E0D6E020E0E6ECD
:10018000DADF0BD0116A100E126E8BDF06D0010E73
:10019000116E0CC012F085DF00D0000C0D50016A0A
:1001A0000C5C03E20CC000F00CD0006A080E0E6E6E
:1001B0000C3600360D50005CD8B0006E01360E2EA5
:1001C000F7D7000C200E07A8300E086E06C000F00E
:1001D00006AE07D0001E002A00C006F02D0E086EE5
:1001E000078E015006C00CF0640E0D6ED7DF00C004
:1001F00006F0300E0124096E06C00CF00A0E0D6EDA
:10020000CDDF300E00240B6E300E01240A6E08C0C4
:1002100000F007A602D007AE079407B80BD007AED0
:1002200022D007B420D000C009F007B21CD000C013
:100230000AF019D0300E095C16E100C009F0200E5A
:10024000086E07A604D00794078207AE0792300E07
:100250000A5C09E100C00AF0200E096E07A6F7D774
:10026000079207AE079007A403D008C00CF074DF14
:1002700007A203D009C00CF06FDF07A003D00AC0AB
:100280000CF06ADF0BC00CF067DFD4EF01F0F86A06
:10029000D09EEA6AE96A700ED36ED350046A040EE7
:1002A000056EC150C00B0F09C16E070EB46E13D797
:1002B000C150C00B0F09C16EC090C092C094C09EC7
:1002C000C2809698C69A949E93809392010EC66EB1
:1002D000000EC76ED190800ED56ECD6A000ECA6E2C
:1002E000000ECB6E070EB46E9250926E060E006E2C
:1002F000002EFED70000B450A19CB56A720ED36EDA
:10030000800E9B6ED350F00E936E93908A809392E2
:100310008A82938881B806D0938A81BA03D0938C5D
:1003200081AC2ED093908A9093928A9293908A80F7
:10033000938881A802D0010E046E938A81AA02D00C
:10034000020E046E938C81AC02D0030E046E939067
:100350008A9093928A82938881A802D0040E046EB8
:10036000938A81AA02D0050E046E938C81AC02D0D0
:10037000060E046E93928A92960E0D6E4DDE052A3D
:100380000550140805E20C0E0C6EE6DE050E056E37
:1003900005C00DF0010E0E6ECEDE045205E004C065
:1003A00006F01F0E076E0ED7960E0D6E35DEADD71A
:0203B000030048
:020000040030CA
:0E0000003FC8380E0005A1000FC00FE00F40F2
:00000001FF
;PIC18F4550
;CRC=A620  CREATED="25-abr.-18 11:25"
