:1000000006EF01F0F76A140FF66E000EF7220900F2
:10001000F5501200280C0106EA6A080EE96EEF504E
:100020000DE0020E016E006A002EFED7012EFBD7F6
:10003000970E006E002EFED7EF2EF3D7000C0F3870
:10004000F00B006E0F0E8C1400108C6E00008C8074
:1000500000D000D08C90000C8350006E00380F0B45
:10006000016E000C0F0E9514F009956E8C84000043
:100070008C800000F1DF01C00FF08C9000008C80BC
:1000800000D0EADF01C00EF08C900F0E9514956E33
:100090000F38006EF00E001600500E10016E53EF78
:1000A00000F08C92DFD701C00EF001BEFBD78C921E
:1000B0000CB08C8200008C9400008C900D380E6E79
:1000C0000F0E0E160EC00FF0BADF0D500F0B0E6E96
:1000D0000F6EB5DF000C0F0E9514956E95909592EE
:1000E00095948C928C948C900F0E086E95DF010E77
:1000F000076E0750030808E3030E0F6EA0DF050E1E
:10010000086E8ADF072AF5D7020E0F6E98DF076A9E
:10011000075003080EE3036A0750F2CF08F0F29E7F
:1001200071DF08BEF28E086E0C6A0D6EBADF072A08
:10013000EFD716EF01F00750070B006E0730016E86
:10014000013201321F0E011601500924E96E000E22
:100150000A20EA6E016A012A002A01D00136002E27
:10016000FDD7085203E00150EF1203D0011E0150E9
:10017000EF1673EF01F00750070B006E0730016EAA
:10018000013201321F0E011601500824E96E000EE3
:100190000920EA6EEFCF01F0002A01D00132002ED3
:1001A000FDD77AEF01F0092C01D003D0400E0A6E82
:1001B00001D00A6A010E085C0A260A5080090B6EFB
:1001C0000C6A0D6E6EDF000C07500C0A05E0060A83
:1001D0000BE0020A0FE013D00C6A010E0D6E61DF16
:1001E000020E086E19DF11D0010E086E020E096EA4
:1001F000DADF0BD00C6A100E0D6E53DF06D0010E45
:100200000C6E07C00DF04DDF00D0000CF86AD09ED8
:10021000EA6AE96A700ED36ED350FF0E066EC150C3
:10022000C00B0F09C16E070EB46E55D7C150C00B7D
:100230000F09C16EC090C092C094C09EC2809698B3
:10024000C69A949E93809392010EC66E000EC76E5E
:10025000D190800ED56ECD6A000ECA6E000ECB6EA8
:10026000B16A070EB46E9250926E060E006E002EAA
:10027000FED70000B450A19CB56A720ED36E800EFA
:100280009B6ED350F00E936E000E956E926E92920E
:100290008982936AFF0E8A6E938881B806D0938A0A
:1002A00081BA03D0938C81AC33D0936A8A6A320EC0
:1002B000086EB2DE010E046E0450020829E3936A50
:1002C00004C08AFF320E086EA7DE100E056E0550C0
:1002D00040081BE305C007F0010E086E0F0E0A6E02
:1002E000920E096E28D705C007F00F0E096E800E1A
:1002F000086E41D701A000D004500524066E320ECE
:10030000086E8ADED8900536E2D7D8900436D4D766
:10031000050E086E010E096E46DF0650110A0BE04D
:10032000300A10E0600A15E0530A1AE0300A1FE0B4
:10033000600A24E02AD00C0E076E46DF610E076EBD
:1003400043DF23D00C0E076E3FDF620E076E3CDFEB
:100350001CD00C0E076E38DF630E076E35DF15D02C
:100360000C0E076E31DF640E076E2EDF0ED00C0E02
:10037000076E2ADF650E076E27DF07D00C0E076EAB
:1003800023DF660E076E20DF00D0640E086E44DEA9
:08039000929289927CD7FFD7FD
:020000040030CA
:0E0000003FC8390E000520000FC00FE00F4072
:00000001FF
;PIC18F4550
;CRC=18D9  CREATED="22-abr.-18 11:08"
