:1000000016EF00F0EA6A070EE96EEF500DE0020EFF
:10001000016E006A002EFED7012EFBD7970E006EF0
:10002000002EFED7EF2EF3D734EF00F0F86AD09E03
:10003000EA6AE96AC150C00B0F09C16E070EB46EBF
:10004000720ED36E800E9B6ED350000E936E010E17
:10005000056E055004080DE3936A05C08AFF040E7F
:10006000066EAF0E076ECED7062EFBD7D89005369C
:06007000F0D7EDD70300FC
:020000040030CA
:0E0000003FC5380E0005A1000FC00FE00F40F5
:00000001FF
;PIC18F4550
;CRC=F1E5  CREATED="10-mar.-18 20:54"
