:10000000F3EF00F0F76A140FF66E000EF722090006
:10001000F5501200280C0106EA6A090EE96EEF504D
:100020000DE0020E016E006A002EFED7012EFBD7F6
:10003000970E006E002EFED7EF2EF3D7000C10386F
:10004000F00B006E0F0E8C1400108C6E00008C8074
:1000500000D000D08C90000C8350006E00380F0B45
:10006000016E000C0F0E9514F009956E8C84000043
:100070008C800000F1DF01C010F08C9000008C80BB
:1000800000D0EADF01C00FF08C900F0E9514956E32
:100090001038006EF00E001600500F10016E53EF76
:1000A00000F08C92DFD701C00FF001BEFBD78C921D
:1000B0000DB08C8200008C9400008C900E380F6E76
:1000C0000F0E0F160FC010F0BADF0E500F0B0F6E91
:1000D000106EB5DF000C0F0E9514956E95909592ED
:1000E00095948C928C948C900F0E096E95DF010E76
:1000F000086E0850030808E3030E106EA0DF050E1B
:10010000096E8ADF082AF5D7020E106E98DF086A9A
:10011000085003080EE3036A0850F2CF09F0F29E7C
:1001200071DF09BEF28E096E0D6A0E6EBADF082A03
:10013000EFD709EF01F00A2C01D003D0400E0B6E6F
:1001400001D00B6A010E095C0B260B5080090C6E66
:100150000D6A0E6EA6DF000C08500C0A05E0060AB8
:100160000BE0020A0FE013D00D6A010E0E6E99DF4C
:10017000020E096E51DF11D0010E096E020E0A6ED9
:10018000DADF0BD00D6A100E0E6E8BDF06D0010E7B
:100190000D6E08C00EF085DF00D0000C006A016A09
:1001A0000850D89009B000260032013209B200266A
:1001B0000032013209B400260032013209B60026AD
:1001C0000032013209B800260032013209BA002695
:1001D0000032013209BC00260032013209BE00267D
:1001E00000320132000CF86AD09EEA6AE96A700EA9
:1001F000D36ED350010E046E020E056E010E066E14
:10020000010E076EC150C00B0F09C16E070EB46E10
:1002100062D7C150C00B0F09C16EC090C092C0948C
:10022000C09EC2809698C69A949E93809392010E27
:10023000C66E000EC76ED190800ED56ECD6A000ED0
:10024000CA6E000ECB6E070EB46E9250926E060E02
:10025000006E002EFED70000B450A19CB56AF28853
:10026000C00EF212720ED36E800E9B6ED350000E33
:10027000956EFF0E926E000E936E05C009F006C0DB
:100280000AF059DF2A0E086E67DF640E096EC4DEBD
:100290000C0E086E61DF0450052607500626055037
:1002A000100802E0052C07D004C008F0FF0E096E0C
:1002B00075DF01C004F00650020802E0062C07D0EA
:1002C00007C008F0FF0E096E69DF01C007F0D5D73F
:0202D000030029
:020000040030CA
:0E0000003FC8390E0005A1000FC00FE00F40F1
:00000001FF
;PIC18F4550
;CRC=B04E  CREATED="14-mar.-18 13:22"
