:1000000015EF00F0EA6A060EE96EEF500DE0020E01
:10001000016E006A002EFED7012EFBD7970E006EF0
:10002000002EFED7EF2EF3D7000CF86AD09EEA6AB6
:10003000E96A700ED36ED350C150C00B0F09C16E68
:10004000070EB46E720ED36E800E9B6ED350000EF0
:10005000936E93908A80040E056EAF0E066ED2DF0B
:10006000052EFBD793908A90040E056EAF0E066E98
:0A007000C9DF052EFBD7EDD7030012
:020000040030CA
:0E0000003FC8380E0005A1000FC00FE00F40F2
:00000001FF
;PIC18F4550
;CRC=B2AD  CREATED="07-feb.-18 12:46"
