:0400000036EF01F0E6
:08000800046ED8CF05F0E0CF33
:1000100006F00001E9CF0CF0EACF07F0E1CF08F0DD
:10002000E2CF09F0D9CF0AF0DACF0BF0F3CF12F01C
:10003000F4CF13F0FACF14F000C00EF001C00FF0AF
:1000400002C010F003C011F0F2A82AEF00F0F2B2E3
:100050005AEF00F00EC000F00FC001F010C002F027
:1000600011C003F00CC0E9FF07C0EAFF078E08C00B
:10007000E1FF09C0E2FF0AC0D9FF0BC0DAFF12C0DE
:10008000F3FF13C0F4FF14C0FAFF045006C0E0FFF2
:1000900005C0D8FF1000F2CF0DF0F29EF76AB00F46
:1000A000F66E000EF7220900F5500DBEF28E12001A
:1000B000280C0106F2922AEF00F00C4C616C6F00E4
:1000C0000C636869646F0000EA6A190EE96EEF500C
:1000D0000DE0020E016E006A002EFED7012EFBD746
:1000E000970E006E002EFED7EF2EF3D7000C2038AF
:1000F000F00B006E0F0E8C1400108C6E00008C80C4
:1001000000D000D08C90000C8350006E00380F0B94
:10011000016E000C0F0E9514F009956E8C84000092
:100120008C800000F1DF01C020F08C9000008C80FA
:1001300000D0EADF01C01FF08C900F0E9514956E71
:100140002038006EF00E001600501F10016EABEF4D
:1001500000F08C92DFD701C01FF001BEFBD78C925C
:100160001DB08C8200008C9400008C901E381F6E95
:100170000F0E1F161FC020F0BADF1E500F0B1F6E90
:10018000206EB5DF000C0F0E9514956E959095922C
:1001900095948C928C948C900F0E196E95DF010EB5
:1001A000166E1650030808E3030E206EA0DF050E3E
:1001B000196E8ADF162AF5D7020E206E98DF166AAE
:1001C000165003080EE3036A1650F2CF17F0F29EA2
:1001D00062DF17BEF28E176E1D6A1E6EBADF162A18
:1001E000EFD745EF01F01A2C01D003D0400E1B6E63
:1001F00001D01B6A010E195C1B261B5080091C6E66
:100200001D6A1E6EA6DF000C18500C0A05E0060AD7
:100210000BE0020A0FE013D01D6A010E1E6E99DF7B
:10022000020E196E51DF11D0010E196E020E1A6EF8
:10023000DADF0BD01D6A100E1E6E8BDF06D0010EAA
:100240001D6E18C01EF085DF00D0000C0900F552AD
:100250000CE0F6CF16F0F7CF17F0F5CF18F0D4DF9B
:1002600016C0F6FF17C0F7FFF1D7000CF86AD09E52
:10027000078EEA6AE96A700ED36ED350C150C00B84
:100280000F09C16E070EB46E7ED7C150C00B0F09A7
:10029000C16EC090C092C094C09EC2809698C69A0B
:1002A000949E93809392010EC66E000EC76ED190FD
:1002B000800ED56ECD6A000ECA6E000ECB6E070E94
:1002C000B46E9250926E060E006E002EFED70000A5
:1002D000B450A19CB56AF288C00EF212720ED36EB1
:1002E000800E9B6ED350000E956EFF0E926E000E28
:1002F000936E060E196E010E1A6E75DFBA0EF66E4B
:10030000000EF76EA3DF020E166EFA0E196EDCDE1B
:10031000162EFBD7070E196E010E1A6E64DF0C0E37
:10032000186E72DF650E186E6FDF6C0E186E6CDF64
:10033000020E166EFA0E196EC7DE162EFBD7060ECB
:10034000196E010E1A6E4FDFC00EF66E000EF76EBC
:100350007DDF020E166EFA0E196EB6DE162EFBD774
:04036000C8D70300F7
:020000040030CA
:0E0000003FC8380E0005A1000FC00FE00F40F2
:00000001FF
;PIC18F4550
;CRC=5A2E  CREATED="21-mar.-18 13:11"
