:040000006EEF00F0AF
:08000800046ED8CF05F0E0CF33
:1000100006F00001E9CF0CF0EACF07F0E1CF08F0DD
:10002000E2CF09F0D9CF0AF0DACF0BF0F3CF12F01C
:10003000F4CF13F0FACF14F000C00EF001C00FF0AF
:1000400002C010F003C011F0F2A82AEF00F0F2B2E3
:100050005EEF00F00EC000F00FC001F010C002F023
:1000600011C003F00CC0E9FF07C0EAFF078E08C00B
:10007000E1FF09C0E2FF0AC0D9FF0BC0DAFF12C0DE
:10008000F3FF13C0F4FF14C0FAFF045006C0E0FFF2
:1000900005C0D8FF1000EA6A1A0EE96EEF500DE0B5
:1000A000020E016E006A002EFED7012EFBD7970EBE
:1000B000006E002EFED7EF2EF3D7000C936A8A6AEB
:1000C00093968A86080E196EFA0E1A6EE4DF192EC0
:1000D000FBD793968A96F2922AEF00F0F86AD09EA8
:1000E000078EEA6AE96A700ED36ED350C150C00B16
:1000F0000F09C16E070EB46EF288C00EF212F18CB9
:10010000720ED36E800E9B6ED350FF0E926E010E58
:10011000936E93928A82939C8A8C080E176E166A4D
:10012000F2BE168EF29EFA0E1A6EB5DF16BEF28E73
:10013000172EF5D793928A9293948A84080E176E9D
:10014000166AF2BE168EF29EFA0E1A6EA4DF16BE64
:10015000F28E172EF5D793948A94939C8A9C93964B
:100160008A8693988A88080E176E166AF2BE168ED3
:10017000F29EFA0E1A6E8FDF16BEF28E172EF5D78C
:1001800093988A98939A8A8A080E176E166AF2BE16
:10019000168EF29EFA0E1A6E7EDF16BEF28E172EA5
:0A01A000F5D7939A8A9AB5D70300A9
:020000040030CA
:0E0000003FC8380E0005A1000FC00FE00F40F2
:00000001FF
;PIC18F4550
;CRC=0A77  CREATED="28-feb.-18 13:25"
